{
  "contractName": "BaseRegistrar",
  "abi": [
    {
      "inputs": [
        {
          "internalType": "contract ENS",
          "name": "_ens",
          "type": "address"
        },
        {
          "internalType": "bytes32",
          "name": "_baseNode",
          "type": "bytes32"
        },
        {
          "internalType": "uint256[]",
          "name": "_rentPrices",
          "type": "uint256[]"
        }
      ],
      "stateMutability": "nonpayable",
      "type": "constructor"
    },
    {
      "anonymous": false,
      "inputs": [
        {
          "indexed": true,
          "internalType": "address",
          "name": "controller",
          "type": "address"
        }
      ],
      "name": "ControllerAdded",
      "type": "event"
    },
    {
      "anonymous": false,
      "inputs": [
        {
          "indexed": true,
          "internalType": "address",
          "name": "controller",
          "type": "address"
        }
      ],
      "name": "ControllerRemoved",
      "type": "event"
    },
    {
      "anonymous": false,
      "inputs": [
        {
          "indexed": false,
          "internalType": "string",
          "name": "name",
          "type": "string"
        },
        {
          "indexed": true,
          "internalType": "bytes32",
          "name": "label",
          "type": "bytes32"
        },
        {
          "indexed": true,
          "internalType": "address",
          "name": "owner",
          "type": "address"
        },
        {
          "indexed": false,
          "internalType": "uint256",
          "name": "cost",
          "type": "uint256"
        },
        {
          "indexed": false,
          "internalType": "uint256",
          "name": "expires",
          "type": "uint256"
        }
      ],
      "name": "NameRegistered",
      "type": "event"
    },
    {
      "anonymous": false,
      "inputs": [
        {
          "indexed": false,
          "internalType": "string",
          "name": "name",
          "type": "string"
        },
        {
          "indexed": true,
          "internalType": "bytes32",
          "name": "label",
          "type": "bytes32"
        },
        {
          "indexed": false,
          "internalType": "uint256",
          "name": "cost",
          "type": "uint256"
        },
        {
          "indexed": false,
          "internalType": "uint256",
          "name": "expires",
          "type": "uint256"
        }
      ],
      "name": "NameRenewed",
      "type": "event"
    },
    {
      "anonymous": false,
      "inputs": [
        {
          "indexed": true,
          "internalType": "address",
          "name": "previousOwner",
          "type": "address"
        },
        {
          "indexed": true,
          "internalType": "address",
          "name": "newOwner",
          "type": "address"
        }
      ],
      "name": "OwnershipTransferred",
      "type": "event"
    },
    {
      "anonymous": false,
      "inputs": [
        {
          "indexed": false,
          "internalType": "uint256[]",
          "name": "prices",
          "type": "uint256[]"
        }
      ],
      "name": "RentPriceChanged",
      "type": "event"
    },
    {
      "inputs": [],
      "name": "GRACE_PERIOD",
      "outputs": [
        {
          "internalType": "uint256",
          "name": "",
          "type": "uint256"
        }
      ],
      "stateMutability": "view",
      "type": "function"
    },
    {
      "inputs": [],
      "name": "MIN_REGISTRATION_DURATION",
      "outputs": [
        {
          "internalType": "uint256",
          "name": "",
          "type": "uint256"
        }
      ],
      "stateMutability": "view",
      "type": "function"
    },
    {
      "inputs": [],
      "name": "baseNode",
      "outputs": [
        {
          "internalType": "bytes32",
          "name": "",
          "type": "bytes32"
        }
      ],
      "stateMutability": "view",
      "type": "function"
    },
    {
      "inputs": [
        {
          "internalType": "bytes32",
          "name": "",
          "type": "bytes32"
        }
      ],
      "name": "commitments",
      "outputs": [
        {
          "internalType": "uint256",
          "name": "",
          "type": "uint256"
        }
      ],
      "stateMutability": "view",
      "type": "function"
    },
    {
      "inputs": [
        {
          "internalType": "address",
          "name": "",
          "type": "address"
        }
      ],
      "name": "controllers",
      "outputs": [
        {
          "internalType": "bool",
          "name": "",
          "type": "bool"
        }
      ],
      "stateMutability": "view",
      "type": "function"
    },
    {
      "inputs": [],
      "name": "ens",
      "outputs": [
        {
          "internalType": "contract ENS",
          "name": "",
          "type": "address"
        }
      ],
      "stateMutability": "view",
      "type": "function"
    },
    {
      "inputs": [],
      "name": "maxCommitmentAge",
      "outputs": [
        {
          "internalType": "uint256",
          "name": "",
          "type": "uint256"
        }
      ],
      "stateMutability": "view",
      "type": "function"
    },
    {
      "inputs": [],
      "name": "minCommitmentAge",
      "outputs": [
        {
          "internalType": "uint256",
          "name": "",
          "type": "uint256"
        }
      ],
      "stateMutability": "view",
      "type": "function"
    },
    {
      "inputs": [],
      "name": "owner",
      "outputs": [
        {
          "internalType": "address",
          "name": "",
          "type": "address"
        }
      ],
      "stateMutability": "view",
      "type": "function"
    },
    {
      "inputs": [],
      "name": "renounceOwnership",
      "outputs": [],
      "stateMutability": "nonpayable",
      "type": "function"
    },
    {
      "inputs": [
        {
          "internalType": "uint256",
          "name": "",
          "type": "uint256"
        }
      ],
      "name": "rentPrices",
      "outputs": [
        {
          "internalType": "uint256",
          "name": "",
          "type": "uint256"
        }
      ],
      "stateMutability": "view",
      "type": "function"
    },
    {
      "inputs": [
        {
          "internalType": "address",
          "name": "newOwner",
          "type": "address"
        }
      ],
      "name": "transferOwnership",
      "outputs": [],
      "stateMutability": "nonpayable",
      "type": "function"
    },
    {
      "inputs": [
        {
          "internalType": "address",
          "name": "controller",
          "type": "address"
        }
      ],
      "name": "addController",
      "outputs": [],
      "stateMutability": "nonpayable",
      "type": "function"
    },
    {
      "inputs": [
        {
          "internalType": "address",
          "name": "controller",
          "type": "address"
        }
      ],
      "name": "removeController",
      "outputs": [],
      "stateMutability": "nonpayable",
      "type": "function"
    },
    {
      "inputs": [
        {
          "internalType": "uint256",
          "name": "tokenId",
          "type": "uint256"
        }
      ],
      "name": "ownerOf",
      "outputs": [
        {
          "internalType": "address",
          "name": "",
          "type": "address"
        }
      ],
      "stateMutability": "view",
      "type": "function"
    },
    {
      "inputs": [
        {
          "internalType": "uint256",
          "name": "id",
          "type": "uint256"
        }
      ],
      "name": "nameExpires",
      "outputs": [
        {
          "internalType": "uint256",
          "name": "",
          "type": "uint256"
        }
      ],
      "stateMutability": "view",
      "type": "function"
    },
    {
      "inputs": [
        {
          "internalType": "uint256",
          "name": "id",
          "type": "uint256"
        }
      ],
      "name": "available",
      "outputs": [
        {
          "internalType": "bool",
          "name": "",
          "type": "bool"
        }
      ],
      "stateMutability": "view",
      "type": "function"
    },
    {
      "inputs": [
        {
          "internalType": "string",
          "name": "name",
          "type": "string"
        },
        {
          "internalType": "uint256",
          "name": "duration",
          "type": "uint256"
        }
      ],
      "name": "renew",
      "outputs": [],
      "stateMutability": "payable",
      "type": "function"
    },
    {
      "inputs": [
        {
          "internalType": "string",
          "name": "name",
          "type": "string"
        },
        {
          "internalType": "address",
          "name": "owner",
          "type": "address"
        },
        {
          "internalType": "uint256",
          "name": "duration",
          "type": "uint256"
        }
      ],
      "name": "register",
      "outputs": [],
      "stateMutability": "payable",
      "type": "function"
    },
    {
      "inputs": [],
      "name": "withdraw",
      "outputs": [],
      "stateMutability": "nonpayable",
      "type": "function"
    },
    {
      "inputs": [
        {
          "internalType": "string",
          "name": "name",
          "type": "string"
        },
        {
          "internalType": "uint256",
          "name": "duration",
          "type": "uint256"
        }
      ],
      "name": "rentPrice",
      "outputs": [
        {
          "internalType": "uint256",
          "name": "",
          "type": "uint256"
        }
      ],
      "stateMutability": "view",
      "type": "function"
    },
    {
      "inputs": [
        {
          "internalType": "uint256[]",
          "name": "_rentPrices",
          "type": "uint256[]"
        }
      ],
      "name": "setPrices",
      "outputs": [],
      "stateMutability": "nonpayable",
      "type": "function"
    },
    {
      "inputs": [
        {
          "internalType": "string",
          "name": "name",
          "type": "string"
        },
        {
          "internalType": "uint256",
          "name": "expires",
          "type": "uint256"
        },
        {
          "internalType": "uint256",
          "name": "duration",
          "type": "uint256"
        }
      ],
      "name": "price",
      "outputs": [
        {
          "internalType": "uint256",
          "name": "",
          "type": "uint256"
        }
      ],
      "stateMutability": "view",
      "type": "function"
    },
    {
      "inputs": [
        {
          "internalType": "uint256",
          "name": "_minCommitmentAge",
          "type": "uint256"
        },
        {
          "internalType": "uint256",
          "name": "_maxCommitmentAge",
          "type": "uint256"
        }
      ],
      "name": "setCommitmentAges",
      "outputs": [],
      "stateMutability": "nonpayable",
      "type": "function"
    },
    {
      "inputs": [
        {
          "internalType": "string",
          "name": "name",
          "type": "string"
        },
        {
          "internalType": "address",
          "name": "owner",
          "type": "address"
        },
        {
          "internalType": "bytes32",
          "name": "secret",
          "type": "bytes32"
        }
      ],
      "name": "makeCommitment",
      "outputs": [
        {
          "internalType": "bytes32",
          "name": "",
          "type": "bytes32"
        }
      ],
      "stateMutability": "pure",
      "type": "function"
    },
    {
      "inputs": [
        {
          "internalType": "bytes32",
          "name": "commitment",
          "type": "bytes32"
        }
      ],
      "name": "commit",
      "outputs": [],
      "stateMutability": "nonpayable",
      "type": "function"
    },
    {
      "inputs": [
        {
          "internalType": "string",
          "name": "name",
          "type": "string"
        }
      ],
      "name": "valid",
      "outputs": [
        {
          "internalType": "bool",
          "name": "",
          "type": "bool"
        }
      ],
      "stateMutability": "pure",
      "type": "function"
    }
  ],
  "bytecode": "0x60806040523480156200001157600080fd5b5060405162002e9b38038062002e9b83398181016040528101906200003791906200057b565b620000576200004b620000b960201b60201c565b620000c160201b60201c565b82600160006101000a81548173ffffffffffffffffffffffffffffffffffffffff021916908373ffffffffffffffffffffffffffffffffffffffff16021790555081600281905550620000b0816200018560201b60201c565b5050506200076b565b600033905090565b60008060009054906101000a900473ffffffffffffffffffffffffffffffffffffffff169050816000806101000a81548173ffffffffffffffffffffffffffffffffffffffff021916908373ffffffffffffffffffffffffffffffffffffffff1602179055508173ffffffffffffffffffffffffffffffffffffffff168173ffffffffffffffffffffffffffffffffffffffff167f8be0079c531659141344cd1fd0a4f28419497f9722a3daafe3b4186f6b6457e060405160405180910390a35050565b62000195620000b960201b60201c565b73ffffffffffffffffffffffffffffffffffffffff16620001bb6200026960201b60201c565b73ffffffffffffffffffffffffffffffffffffffff161462000214576040517f08c379a00000000000000000000000000000000000000000000000000000000081526004016200020b9062000657565b60405180910390fd5b80600790805190602001906200022c92919062000292565b507f73422d94aedd596c2d4d39f27a01033adc390a9054efaf259afefd95ef7331df816040516200025e919062000747565b60405180910390a150565b60008060009054906101000a900473ffffffffffffffffffffffffffffffffffffffff16905090565b828054828255906000526020600020908101928215620002d1579160200282015b82811115620002d0578251825591602001919060010190620002b3565b5b509050620002e09190620002e4565b5090565b5b80821115620002ff576000816000905550600101620002e5565b5090565b6000604051905090565b600080fd5b600080fd5b600073ffffffffffffffffffffffffffffffffffffffff82169050919050565b6000620003448262000317565b9050919050565b6000620003588262000337565b9050919050565b6200036a816200034b565b81146200037657600080fd5b50565b6000815190506200038a816200035f565b92915050565b6000819050919050565b620003a58162000390565b8114620003b157600080fd5b50565b600081519050620003c5816200039a565b92915050565b600080fd5b6000601f19601f8301169050919050565b7f4e487b7100000000000000000000000000000000000000000000000000000000600052604160045260246000fd5b6200041b82620003d0565b810181811067ffffffffffffffff821117156200043d576200043c620003e1565b5b80604052505050565b60006200045262000303565b905062000460828262000410565b919050565b600067ffffffffffffffff821115620004835762000482620003e1565b5b602082029050602081019050919050565b600080fd5b6000819050919050565b620004ae8162000499565b8114620004ba57600080fd5b50565b600081519050620004ce81620004a3565b92915050565b6000620004eb620004e58462000465565b62000446565b9050808382526020820190506020840283018581111562000511576200051062000494565b5b835b818110156200053e5780620005298882620004bd565b84526020840193505060208101905062000513565b5050509392505050565b600082601f83011262000560576200055f620003cb565b5b815162000572848260208601620004d4565b91505092915050565b6000806000606084860312156200059757620005966200030d565b5b6000620005a78682870162000379565b9350506020620005ba86828701620003b4565b925050604084015167ffffffffffffffff811115620005de57620005dd62000312565b5b620005ec8682870162000548565b9150509250925092565b600082825260208201905092915050565b7f4f776e61626c653a2063616c6c6572206973206e6f7420746865206f776e6572600082015250565b60006200063f602083620005f6565b91506200064c8262000607565b602082019050919050565b60006020820190508181036000830152620006728162000630565b9050919050565b600081519050919050565b600082825260208201905092915050565b6000819050602082019050919050565b620006b08162000499565b82525050565b6000620006c48383620006a5565b60208301905092915050565b6000602082019050919050565b6000620006ea8262000679565b620006f6818562000684565b9350620007038362000695565b8060005b838110156200073a5781516200071e8882620006b6565b97506200072b83620006d0565b92505060018101905062000707565b5085935050505092915050565b60006020820190508181036000830152620007638184620006dd565b905092915050565b612720806200077b6000396000f3fe60806040526004361061019c5760003560e01c806396e494e8116100ec578063d6e4fa861161008a578063f14fcbc811610064578063f14fcbc8146105d4578063f2fde38b146105fd578063f49826be14610626578063f6a74ed7146106635761019c565b8063d6e4fa861461052f578063da8c229e1461056c578063ddf7fcb0146105a95761019c565b8063acf1a841116100c6578063acf1a841146104a1578063c1a287e2146104bd578063ce1e09c0146104e8578063d393c871146105135761019c565b806396e494e8146103fe5780639791c0971461043b578063a7fc7a07146104785761019c565b806379cf92d31161015957806383e7f6ff1161013357806383e7f6ff146103405780638a95b09f1461037d5780638d839ffe146103a85780638da5cb5b146103d35761019c565b806379cf92d3146102b15780637e324479146102da578063839df945146103035761019c565b806306d5d0b6146101a15780633ccfd60b146101de5780633f15457f146101f557806350e9a715146102205780636352211e1461025d578063715018a61461029a575b600080fd5b3480156101ad57600080fd5b506101c860048036038101906101c39190611967565b61068c565b6040516101d591906119a3565b60405180910390f35b3480156101ea57600080fd5b506101f36106b0565b005b34801561020157600080fd5b5061020a610775565b6040516102179190611a3d565b60405180910390f35b34801561022c57600080fd5b5061024760048036038101906102429190611b9e565b61079b565b60405161025491906119a3565b60405180910390f35b34801561026957600080fd5b50610284600480360381019061027f9190611967565b61082f565b6040516102919190611c2e565b60405180910390f35b3480156102a657600080fd5b506102af610905565b005b3480156102bd57600080fd5b506102d860048036038101906102d39190611d11565b61098d565b005b3480156102e657600080fd5b5061030160048036038101906102fc9190611d5a565b610a5a565b005b34801561030f57600080fd5b5061032a60048036038101906103259190611dd0565b610ae8565b60405161033791906119a3565b60405180910390f35b34801561034c57600080fd5b5061036760048036038101906103629190611dfd565b610b00565b60405161037491906119a3565b60405180910390f35b34801561038957600080fd5b50610392610b2c565b60405161039f91906119a3565b60405180910390f35b3480156103b457600080fd5b506103bd610b33565b6040516103ca91906119a3565b60405180910390f35b3480156103df57600080fd5b506103e8610b39565b6040516103f59190611c2e565b60405180910390f35b34801561040a57600080fd5b5061042560048036038101906104209190611967565b610b62565b6040516104329190611e74565b60405180910390f35b34801561044757600080fd5b50610462600480360381019061045d9190611e8f565b610b8f565b60405161046f9190611e74565b60405180910390f35b34801561048457600080fd5b5061049f600480360381019061049a9190611f04565b610ba5565b005b6104bb60048036038101906104b69190611f8c565b610cbf565b005b3480156104c957600080fd5b506104d2610dec565b6040516104df91906119a3565b60405180910390f35b3480156104f457600080fd5b506104fd610df3565b60405161050a91906119a3565b60405180910390f35b61052d60048036038101906105289190611fec565b610df9565b005b34801561053b57600080fd5b5061055660048036038101906105519190611967565b610f55565b60405161056391906119a3565b60405180910390f35b34801561057857600080fd5b50610593600480360381019061058e9190611f04565b610f72565b6040516105a09190611e74565b60405180910390f35b3480156105b557600080fd5b506105be610f92565b6040516105cb919061206f565b60405180910390f35b3480156105e057600080fd5b506105fb60048036038101906105f69190611dd0565b610f98565b005b34801561060957600080fd5b50610624600480360381019061061f9190611f04565b610fdf565b005b34801561063257600080fd5b5061064d6004803603810190610648919061208a565b6110d7565b60405161065a919061206f565b60405180910390f35b34801561066f57600080fd5b5061068a60048036038101906106859190611f04565b611119565b005b6007818154811061069c57600080fd5b906000526020600020016000915090505481565b6106b8611233565b73ffffffffffffffffffffffffffffffffffffffff166106d6610b39565b73ffffffffffffffffffffffffffffffffffffffff161461072c576040517f08c379a000000000000000000000000000000000000000000000000000000000815260040161072390612156565b60405180910390fd5b3373ffffffffffffffffffffffffffffffffffffffff166108fc479081150290604051600060405180830381858888f19350505050158015610772573d6000803e3d6000fd5b50565b600160009054906101000a900473ffffffffffffffffffffffffffffffffffffffff1681565b6000806107a78561123b565b90506007805490508111156107bf5760078054905090505b600381116107cc57600080fd5b600061080b8460076001856107e191906121a5565b815481106107f2576107f16121d9565b5b90600052602060002001546113f090919063ffffffff16565b90506108246305f5e100826113f090919063ffffffff16565b925050509392505050565b60004260066000848152602001908152602001600020541161085057600080fd5b600160009054906101000a900473ffffffffffffffffffffffffffffffffffffffff1673ffffffffffffffffffffffffffffffffffffffff166302571be38360001b6040518263ffffffff1660e01b81526004016108ae919061206f565b60206040518083038186803b1580156108c657600080fd5b505afa1580156108da573d6000803e3d6000fd5b505050506040513d601f19601f820116820180604052508101906108fe919061221d565b9050919050565b61090d611233565b73ffffffffffffffffffffffffffffffffffffffff1661092b610b39565b73ffffffffffffffffffffffffffffffffffffffff1614610981576040517f08c379a000000000000000000000000000000000000000000000000000000000815260040161097890612156565b60405180910390fd5b61098b6000611435565b565b610995611233565b73ffffffffffffffffffffffffffffffffffffffff166109b3610b39565b73ffffffffffffffffffffffffffffffffffffffff1614610a09576040517f08c379a0000000000000000000000000000000000000000000000000000000008152600401610a0090612156565b60405180910390fd5b8060079080519060200190610a1f9291906118b3565b507f73422d94aedd596c2d4d39f27a01033adc390a9054efaf259afefd95ef7331df81604051610a4f9190612308565b60405180910390a150565b610a62611233565b73ffffffffffffffffffffffffffffffffffffffff16610a80610b39565b73ffffffffffffffffffffffffffffffffffffffff1614610ad6576040517f08c379a0000000000000000000000000000000000000000000000000000000008152600401610acd90612156565b60405180910390fd5b81600481905550806005819055505050565b60086020528060005260406000206000915090505481565b60008083805190602001209050610b2384610b1d8360001c610f55565b8561079b565b91505092915050565b6224ea0081565b60045481565b60008060009054906101000a900473ffffffffffffffffffffffffffffffffffffffff16905090565b6000426276a7006006600085815260200190815260200160002054610b87919061232a565b109050919050565b60006003610b9c8361123b565b10159050919050565b610bad611233565b73ffffffffffffffffffffffffffffffffffffffff16610bcb610b39565b73ffffffffffffffffffffffffffffffffffffffff1614610c21576040517f08c379a0000000000000000000000000000000000000000000000000000000008152600401610c1890612156565b60405180910390fd5b6001600360008373ffffffffffffffffffffffffffffffffffffffff1673ffffffffffffffffffffffffffffffffffffffff16815260200190815260200160002060006101000a81548160ff0219169083151502179055508073ffffffffffffffffffffffffffffffffffffffff167f0a8bb31534c0ed46f380cb867bd5c803a189ced9a764e30b3a4991a9901d747460405160405180910390a250565b60008383604051610cd19291906123b0565b604051809103902090506000610cea8260001c846114f9565b90506000610d3c86868080601f016020809104026020016040519081016040528093929190818152602001838380828437600081840152601f19601f8201169050808301925050505050505085610b00565b905080341015610d4b57600080fd5b827f3da24c024582931cfaf8267d8ed24d13a82a8068d5bd337d30ec45cea4e506ae87878486604051610d8194939291906123f6565b60405180910390a280341115610de4573373ffffffffffffffffffffffffffffffffffffffff166108fc8234610db791906121a5565b9081150290604051600060405180830381858888f19350505050158015610de2573d6000803e3d6000fd5b505b505050505050565b6276a70081565b60055481565b60008484604051610e0b9291906123b0565b6040518091039020905060008160001c90506000610e2a828686611699565b90506000610e7c88888080601f016020809104026020016040519081016040528093929190818152602001838380828437600081840152601f19601f8201169050808301925050505050505086610b00565b90506224ea00851015610e8e57600080fd5b80341015610e9b57600080fd5b8573ffffffffffffffffffffffffffffffffffffffff16847fca6abbe9d7f11422cb6ca7629fbf6fe9efb1c621f71ce8f02b9f2a230097404f8a8a8587604051610ee894939291906123f6565b60405180910390a380341115610f4b573373ffffffffffffffffffffffffffffffffffffffff166108fc8234610f1e91906121a5565b9081150290604051600060405180830381858888f19350505050158015610f49573d6000803e3d6000fd5b505b5050505050505050565b600060066000838152602001908152602001600020549050919050565b60036020528060005260406000206000915054906101000a900460ff1681565b60025481565b426005546008600084815260200190815260200160002054610fba919061232a565b10610fc457600080fd5b42600860008381526020019081526020016000208190555050565b610fe7611233565b73ffffffffffffffffffffffffffffffffffffffff16611005610b39565b73ffffffffffffffffffffffffffffffffffffffff161461105b576040517f08c379a000000000000000000000000000000000000000000000000000000000815260040161105290612156565b60405180910390fd5b600073ffffffffffffffffffffffffffffffffffffffff168173ffffffffffffffffffffffffffffffffffffffff1614156110cb576040517f08c379a00000000000000000000000000000000000000000000000000000000081526004016110c2906124a8565b60405180910390fd5b6110d481611435565b50565b600080848051906020012090508084846040516020016110f993929190612531565b604051602081830303815290604052805190602001209150509392505050565b611121611233565b73ffffffffffffffffffffffffffffffffffffffff1661113f610b39565b73ffffffffffffffffffffffffffffffffffffffff1614611195576040517f08c379a000000000000000000000000000000000000000000000000000000000815260040161118c90612156565b60405180910390fd5b6000600360008373ffffffffffffffffffffffffffffffffffffffff1673ffffffffffffffffffffffffffffffffffffffff16815260200190815260200160002060006101000a81548160ff0219169083151502179055508073ffffffffffffffffffffffffffffffffffffffff167f33d83959be2573f5453b12eb9d43b3499bc57d96bd2f067ba44803c859e8111360405160405180910390a250565b600033905090565b60008060008084519050600092505b808210156113e5576000858381518110611267576112666121d9565b5b602001015160f81c60f81b9050608060f81b817effffffffffffffffffffffffffffffffffffffffffffffffffffffffffffff191610156112b6576001836112af919061232a565b92506113d1565b60e060f81b817effffffffffffffffffffffffffffffffffffffffffffffffffffffffffffff191610156112f8576002836112f1919061232a565b92506113d0565b60f060f81b817effffffffffffffffffffffffffffffffffffffffffffffffffffffffffffff1916101561133a57600383611333919061232a565b92506113cf565b60f8801b817effffffffffffffffffffffffffffffffffffffffffffffffffffffffffffff1916101561137b57600483611374919061232a565b92506113ce565b60fc60f81b817effffffffffffffffffffffffffffffffffffffffffffffffffffffffffffff191610156113bd576005836113b6919061232a565b92506113cd565b6006836113ca919061232a565b92505b5b5b5b5b5082806113dd9061256e565b93505061124a565b829350505050919050565b600080831415611403576000905061142f565b6000828461141191906125b7565b90508284826114209190612640565b1461142a57600080fd5b809150505b92915050565b60008060009054906101000a900473ffffffffffffffffffffffffffffffffffffffff169050816000806101000a81548173ffffffffffffffffffffffffffffffffffffffff021916908373ffffffffffffffffffffffffffffffffffffffff1602179055508173ffffffffffffffffffffffffffffffffffffffff168173ffffffffffffffffffffffffffffffffffffffff167f8be0079c531659141344cd1fd0a4f28419497f9722a3daafe3b4186f6b6457e060405160405180910390a35050565b60003073ffffffffffffffffffffffffffffffffffffffff16600160009054906101000a900473ffffffffffffffffffffffffffffffffffffffff1673ffffffffffffffffffffffffffffffffffffffff166302571be36002546040518263ffffffff1660e01b815260040161156f919061206f565b60206040518083038186803b15801561158757600080fd5b505afa15801561159b573d6000803e3d6000fd5b505050506040513d601f19601f820116820180604052508101906115bf919061221d565b73ffffffffffffffffffffffffffffffffffffffff16146115df57600080fd5b426276a7006006600086815260200190815260200160002054611602919061232a565b101561160d57600080fd5b6276a7008261161c919061232a565b6276a70083600660008781526020019081526020016000205461163f919061232a565b611649919061232a565b1161165357600080fd5b81600660008581526020019081526020016000206000828254611676919061232a565b925050819055506006600084815260200190815260200160002054905092915050565b60003073ffffffffffffffffffffffffffffffffffffffff16600160009054906101000a900473ffffffffffffffffffffffffffffffffffffffff1673ffffffffffffffffffffffffffffffffffffffff166302571be36002546040518263ffffffff1660e01b815260040161170f919061206f565b60206040518083038186803b15801561172757600080fd5b505afa15801561173b573d6000803e3d6000fd5b505050506040513d601f19601f8201168201806040525081019061175f919061221d565b73ffffffffffffffffffffffffffffffffffffffff161461177f57600080fd5b61178884610b62565b61179157600080fd5b6276a700426117a0919061232a565b6276a70083426117b0919061232a565b6117ba919061232a565b116117c457600080fd5b81426117d0919061232a565b6006600086815260200190815260200160002081905550600160009054906101000a900473ffffffffffffffffffffffffffffffffffffffff1673ffffffffffffffffffffffffffffffffffffffff166306ab59236002548660001b866040518463ffffffff1660e01b815260040161184b93929190612671565b602060405180830381600087803b15801561186557600080fd5b505af1158015611879573d6000803e3d6000fd5b505050506040513d601f19601f8201168201806040525081019061189d91906126bd565b5081426118aa919061232a565b90509392505050565b8280548282559060005260206000209081019282156118ef579160200282015b828111156118ee5782518255916020019190600101906118d3565b5b5090506118fc9190611900565b5090565b5b80821115611919576000816000905550600101611901565b5090565b6000604051905090565b600080fd5b600080fd5b6000819050919050565b61194481611931565b811461194f57600080fd5b50565b6000813590506119618161193b565b92915050565b60006020828403121561197d5761197c611927565b5b600061198b84828501611952565b91505092915050565b61199d81611931565b82525050565b60006020820190506119b86000830184611994565b92915050565b600073ffffffffffffffffffffffffffffffffffffffff82169050919050565b6000819050919050565b6000611a036119fe6119f9846119be565b6119de565b6119be565b9050919050565b6000611a15826119e8565b9050919050565b6000611a2782611a0a565b9050919050565b611a3781611a1c565b82525050565b6000602082019050611a526000830184611a2e565b92915050565b600080fd5b600080fd5b6000601f19601f8301169050919050565b7f4e487b7100000000000000000000000000000000000000000000000000000000600052604160045260246000fd5b611aab82611a62565b810181811067ffffffffffffffff82111715611aca57611ac9611a73565b5b80604052505050565b6000611add61191d565b9050611ae98282611aa2565b919050565b600067ffffffffffffffff821115611b0957611b08611a73565b5b611b1282611a62565b9050602081019050919050565b82818337600083830152505050565b6000611b41611b3c84611aee565b611ad3565b905082815260208101848484011115611b5d57611b5c611a5d565b5b611b68848285611b1f565b509392505050565b600082601f830112611b8557611b84611a58565b5b8135611b95848260208601611b2e565b91505092915050565b600080600060608486031215611bb757611bb6611927565b5b600084013567ffffffffffffffff811115611bd557611bd461192c565b5b611be186828701611b70565b9350506020611bf286828701611952565b9250506040611c0386828701611952565b9150509250925092565b6000611c18826119be565b9050919050565b611c2881611c0d565b82525050565b6000602082019050611c436000830184611c1f565b92915050565b600067ffffffffffffffff821115611c6457611c63611a73565b5b602082029050602081019050919050565b600080fd5b6000611c8d611c8884611c49565b611ad3565b90508083825260208201905060208402830185811115611cb057611caf611c75565b5b835b81811015611cd95780611cc58882611952565b845260208401935050602081019050611cb2565b5050509392505050565b600082601f830112611cf857611cf7611a58565b5b8135611d08848260208601611c7a565b91505092915050565b600060208284031215611d2757611d26611927565b5b600082013567ffffffffffffffff811115611d4557611d4461192c565b5b611d5184828501611ce3565b91505092915050565b60008060408385031215611d7157611d70611927565b5b6000611d7f85828601611952565b9250506020611d9085828601611952565b9150509250929050565b6000819050919050565b611dad81611d9a565b8114611db857600080fd5b50565b600081359050611dca81611da4565b92915050565b600060208284031215611de657611de5611927565b5b6000611df484828501611dbb565b91505092915050565b60008060408385031215611e1457611e13611927565b5b600083013567ffffffffffffffff811115611e3257611e3161192c565b5b611e3e85828601611b70565b9250506020611e4f85828601611952565b9150509250929050565b60008115159050919050565b611e6e81611e59565b82525050565b6000602082019050611e896000830184611e65565b92915050565b600060208284031215611ea557611ea4611927565b5b600082013567ffffffffffffffff811115611ec357611ec261192c565b5b611ecf84828501611b70565b91505092915050565b611ee181611c0d565b8114611eec57600080fd5b50565b600081359050611efe81611ed8565b92915050565b600060208284031215611f1a57611f19611927565b5b6000611f2884828501611eef565b91505092915050565b600080fd5b60008083601f840112611f4c57611f4b611a58565b5b8235905067ffffffffffffffff811115611f6957611f68611f31565b5b602083019150836001820283011115611f8557611f84611c75565b5b9250929050565b600080600060408486031215611fa557611fa4611927565b5b600084013567ffffffffffffffff811115611fc357611fc261192c565b5b611fcf86828701611f36565b93509350506020611fe286828701611952565b9150509250925092565b6000806000806060858703121561200657612005611927565b5b600085013567ffffffffffffffff8111156120245761202361192c565b5b61203087828801611f36565b9450945050602061204387828801611eef565b925050604061205487828801611952565b91505092959194509250565b61206981611d9a565b82525050565b60006020820190506120846000830184612060565b92915050565b6000806000606084860312156120a3576120a2611927565b5b600084013567ffffffffffffffff8111156120c1576120c061192c565b5b6120cd86828701611b70565b93505060206120de86828701611eef565b92505060406120ef86828701611dbb565b9150509250925092565b600082825260208201905092915050565b7f4f776e61626c653a2063616c6c6572206973206e6f7420746865206f776e6572600082015250565b60006121406020836120f9565b915061214b8261210a565b602082019050919050565b6000602082019050818103600083015261216f81612133565b9050919050565b7f4e487b7100000000000000000000000000000000000000000000000000000000600052601160045260246000fd5b60006121b082611931565b91506121bb83611931565b9250828210156121ce576121cd612176565b5b828203905092915050565b7f4e487b7100000000000000000000000000000000000000000000000000000000600052603260045260246000fd5b60008151905061221781611ed8565b92915050565b60006020828403121561223357612232611927565b5b600061224184828501612208565b91505092915050565b600081519050919050565b600082825260208201905092915050565b6000819050602082019050919050565b61227f81611931565b82525050565b60006122918383612276565b60208301905092915050565b6000602082019050919050565b60006122b58261224a565b6122bf8185612255565b93506122ca83612266565b8060005b838110156122fb5781516122e28882612285565b97506122ed8361229d565b9250506001810190506122ce565b5085935050505092915050565b6000602082019050818103600083015261232281846122aa565b905092915050565b600061233582611931565b915061234083611931565b9250827fffffffffffffffffffffffffffffffffffffffffffffffffffffffffffffffff0382111561237557612374612176565b5b828201905092915050565b600081905092915050565b60006123978385612380565b93506123a4838584611b1f565b82840190509392505050565b60006123bd82848661238b565b91508190509392505050565b60006123d583856120f9565b93506123e2838584611b1f565b6123eb83611a62565b840190509392505050565b600060608201905081810360008301526124118186886123c9565b90506124206020830185611994565b61242d6040830184611994565b95945050505050565b7f4f776e61626c653a206e6577206f776e657220697320746865207a65726f206160008201527f6464726573730000000000000000000000000000000000000000000000000000602082015250565b60006124926026836120f9565b915061249d82612436565b604082019050919050565b600060208201905081810360008301526124c181612485565b9050919050565b6000819050919050565b6124e36124de82611d9a565b6124c8565b82525050565b60008160601b9050919050565b6000612501826124e9565b9050919050565b6000612513826124f6565b9050919050565b61252b61252682611c0d565b612508565b82525050565b600061253d82866124d2565b60208201915061254d828561251a565b60148201915061255d82846124d2565b602082019150819050949350505050565b600061257982611931565b91507fffffffffffffffffffffffffffffffffffffffffffffffffffffffffffffffff8214156125ac576125ab612176565b5b600182019050919050565b60006125c282611931565b91506125cd83611931565b9250817fffffffffffffffffffffffffffffffffffffffffffffffffffffffffffffffff048311821515161561260657612605612176565b5b828202905092915050565b7f4e487b7100000000000000000000000000000000000000000000000000000000600052601260045260246000fd5b600061264b82611931565b915061265683611931565b92508261266657612665612611565b5b828204905092915050565b60006060820190506126866000830186612060565b6126936020830185612060565b6126a06040830184611c1f565b949350505050565b6000815190506126b781611da4565b92915050565b6000602082840312156126d3576126d2611927565b5b60006126e1848285016126a8565b9150509291505056fea264697066735822122047a26407645bbf96867e11f00f5c1f3a9003e678778a60bb64dfdbbb4d1109f664736f6c63430008090033",
  "immutableReferences": {},
  "source": "pragma solidity ^0.8.4;\r\n\r\nimport \"./Registrar.sol\";\r\nimport \"./SafeMath.sol\";\r\nimport \"./StringUtils.sol\";\r\n\r\ncontract BaseRegistrar is Registrar {\r\n    \r\n    mapping(uint256=>uint) expiries;\r\n\r\n    uint constant public MIN_REGISTRATION_DURATION = 28 days;\r\n\r\n    constructor(ENS _ens, bytes32 _baseNode, uint[] memory _rentPrices) {\r\n        ens = _ens;\r\n        baseNode = _baseNode;\r\n        setPrices(_rentPrices);\r\n    }\r\n\r\n    modifier live {\r\n        require(ens.owner(baseNode) == address(this));\r\n        _;\r\n    }\r\n\r\n    // Authorises a controller, who can register and renew domains.\r\n    function addController(address controller) external override onlyOwner {\r\n        controllers[controller] = true;\r\n        emit ControllerAdded(controller);\r\n    }\r\n\r\n    // Revoke controller permission for an address.\r\n    function removeController(address controller) external override onlyOwner {\r\n        controllers[controller] = false;\r\n        emit ControllerRemoved(controller);\r\n    }\r\n\r\n    function ownerOf(uint256 tokenId) public view returns (address) {\r\n        require(expiries[tokenId] > block.timestamp);\r\n        // return super.ownerOf(tokenId);\r\n        return ens.owner(bytes32(tokenId));\r\n    }\r\n\r\n    // Returns the expiration timestamp of the specified id.\r\n    function nameExpires(uint256 id) public view override returns(uint) {\r\n        return expiries[id];\r\n    }\r\n\r\n    // function _nameExpires(uint256 id) view returns(uint) {\r\n    //     return expiries[id];\r\n    // }\r\n\r\n    // Returns true iff the specified name is available for registration.\r\n    function available(uint256 id) public view override returns(bool) {\r\n        // Not available if it's registered here or in its grace period.\r\n        return expiries[id] + GRACE_PERIOD < block.timestamp;\r\n    }\r\n\r\n    function _register(uint256 id, address owner, uint duration) internal live returns(uint) {\r\n        require(available(id));\r\n        require(block.timestamp + duration + GRACE_PERIOD > block.timestamp + GRACE_PERIOD); // Prevent future overflow\r\n\r\n        expiries[id] = block.timestamp + duration;\r\n        ens.setSubnodeOwner(baseNode, bytes32(id), owner);\r\n\r\n        return block.timestamp + duration;\r\n    }\r\n\r\n    function _renew(uint256 id, uint duration) internal live returns(uint) {\r\n        require(expiries[id] + GRACE_PERIOD >= block.timestamp); // Name must be registered here or in grace period\r\n        require(expiries[id] + duration + GRACE_PERIOD > duration + GRACE_PERIOD); // Prevent future overflow\r\n\r\n        expiries[id] += duration;\r\n        return expiries[id];\r\n    }\r\n\r\n    // controller methods\r\n\r\n    function renew(string calldata name, uint duration) external payable {\r\n        bytes32 label = keccak256(bytes(name));\r\n        uint expires = _renew(uint256(label), duration);\r\n\r\n        uint cost = rentPrice(name, duration);\r\n        require(msg.value >= cost);\r\n\r\n        emit NameRenewed(name, label, cost, expires);\r\n\r\n        if(msg.value > cost) {\r\n            payable(msg.sender).transfer(msg.value - cost);\r\n        }\r\n    }\r\n\r\n    function register(string calldata name, address owner, uint duration) external payable {\r\n        bytes32 label = keccak256(bytes(name));\r\n        uint256 tokenId = uint256(label);\r\n\r\n        uint expires = _register(tokenId, owner, duration);\r\n\r\n        uint cost = rentPrice(name, duration);\r\n        require(duration >= MIN_REGISTRATION_DURATION);\r\n        require(msg.value >= cost);\r\n\r\n        emit NameRegistered(name, label, owner, cost, expires);\r\n\r\n        // Refund any extra payment\r\n        if(msg.value > cost) {\r\n            payable(msg.sender).transfer(msg.value - cost);\r\n        }\r\n    }\r\n\r\n    function withdraw() public onlyOwner {\r\n        payable(msg.sender).transfer(address(this).balance);        \r\n    }\r\n\r\n    function rentPrice(string memory name, uint duration) view public returns(uint) {\r\n        bytes32 hash = keccak256(bytes(name));\r\n        return price(name, nameExpires(uint256(hash)), duration);\r\n    }\r\n\r\n    // price oracle\r\n\r\n    using SafeMath for *;\r\n    using StringUtils for *;\r\n\r\n    event RentPriceChanged(uint[] prices);\r\n    \r\n    function setPrices(uint[] memory _rentPrices) public onlyOwner {\r\n        rentPrices = _rentPrices;\r\n        emit RentPriceChanged(_rentPrices);\r\n    }\r\n\r\n    uint[] public rentPrices;\r\n\r\n    function price(string memory name, uint expires, uint duration) public view returns(uint) {\r\n        uint len = name.strlen();\r\n        if(len > rentPrices.length) {\r\n            len = rentPrices.length;\r\n        }\r\n        require(len > 3);\r\n        \r\n        uint basePrice = rentPrices[len - 1].mul(duration);\r\n\r\n        return basePrice.mul(1e8);\r\n    }\r\n\r\n    // commit\r\n\r\n    mapping(bytes32=>uint) public commitments;\r\n\r\n    function setCommitmentAges(uint _minCommitmentAge, uint _maxCommitmentAge) public onlyOwner {\r\n        minCommitmentAge = _minCommitmentAge;\r\n        maxCommitmentAge = _maxCommitmentAge;\r\n    }\r\n\r\n    function makeCommitment(string memory name, address owner, bytes32 secret) pure public returns(bytes32) {\r\n        bytes32 label = keccak256(bytes(name));\r\n        return keccak256(abi.encodePacked(label, owner, secret));\r\n    }\r\n\r\n    function commit(bytes32 commitment) public {\r\n        require(commitments[commitment] + maxCommitmentAge < block.timestamp);\r\n        commitments[commitment] = block.timestamp;\r\n    }\r\n\r\n    function valid(string memory name) public pure returns(bool) {\r\n        return name.strlen() >= 3;\r\n    }\r\n\r\n    function _consumeCommitment(string memory name, uint duration, bytes32 commitment) internal returns (uint256) {\r\n        // Require a valid commitment\r\n        require(commitments[commitment] + minCommitmentAge <= block.timestamp);\r\n\r\n        // If the commitment is too old, or the name is registered, stop\r\n        require(commitments[commitment] + maxCommitmentAge > block.timestamp);\r\n        bytes32 label = keccak256(bytes(name));\r\n        require(valid(name) && available(uint256(label)));\r\n\r\n        delete(commitments[commitment]);\r\n\r\n        uint cost = rentPrice(name, duration);\r\n        require(duration >= MIN_REGISTRATION_DURATION);\r\n        require(msg.value >= cost);\r\n\r\n        return cost;\r\n    }\r\n\r\n}",
  "sourcePath": "/home/hzy/GitRepo/example-subgraph/contracts/registrar/BaseRegistrar.sol",
  "compiler": {
    "name": "solc",
    "version": "0.8.9+commit.e5eed63a.Emscripten.clang"
  },
  "schemaVersion": "3.3.3",
  "updatedAt": "2021-10-08T03:52:31.169Z",
  "devdoc": {
    "kind": "dev",
    "methods": {
      "owner()": {
        "details": "Returns the address of the current owner."
      },
      "renounceOwnership()": {
        "details": "Leaves the contract without owner. It will not be possible to call `onlyOwner` functions anymore. Can only be called by the current owner. NOTE: Renouncing ownership will leave the contract without an owner, thereby removing any functionality that is only available to the owner."
      },
      "transferOwnership(address)": {
        "details": "Transfers ownership of the contract to a new account (`newOwner`). Can only be called by the current owner."
      }
    },
    "version": 1
  },
  "userdoc": {
    "kind": "user",
    "methods": {},
    "version": 1
  }
}