{
  "contractName": "ENSRegistry",
  "abi": [
    {
      "inputs": [],
      "stateMutability": "nonpayable",
      "type": "constructor"
    },
    {
      "anonymous": false,
      "inputs": [
        {
          "indexed": true,
          "internalType": "bytes32",
          "name": "node",
          "type": "bytes32"
        },
        {
          "indexed": true,
          "internalType": "bytes32",
          "name": "label",
          "type": "bytes32"
        },
        {
          "indexed": false,
          "internalType": "address",
          "name": "owner",
          "type": "address"
        }
      ],
      "name": "NewOwner",
      "type": "event"
    },
    {
      "anonymous": false,
      "inputs": [
        {
          "indexed": true,
          "internalType": "bytes32",
          "name": "node",
          "type": "bytes32"
        },
        {
          "indexed": false,
          "internalType": "address",
          "name": "resolver",
          "type": "address"
        }
      ],
      "name": "NewResolver",
      "type": "event"
    },
    {
      "anonymous": false,
      "inputs": [
        {
          "indexed": true,
          "internalType": "bytes32",
          "name": "node",
          "type": "bytes32"
        },
        {
          "indexed": false,
          "internalType": "string",
          "name": "label",
          "type": "string"
        },
        {
          "indexed": false,
          "internalType": "address",
          "name": "owner",
          "type": "address"
        }
      ],
      "name": "NewSubnameOwner",
      "type": "event"
    },
    {
      "anonymous": false,
      "inputs": [
        {
          "indexed": true,
          "internalType": "bytes32",
          "name": "node",
          "type": "bytes32"
        },
        {
          "indexed": false,
          "internalType": "uint64",
          "name": "ttl",
          "type": "uint64"
        }
      ],
      "name": "NewTTL",
      "type": "event"
    },
    {
      "anonymous": false,
      "inputs": [
        {
          "indexed": true,
          "internalType": "bytes32",
          "name": "node",
          "type": "bytes32"
        },
        {
          "indexed": false,
          "internalType": "address",
          "name": "owner",
          "type": "address"
        }
      ],
      "name": "Transfer",
      "type": "event"
    },
    {
      "inputs": [
        {
          "internalType": "bytes32",
          "name": "node",
          "type": "bytes32"
        },
        {
          "internalType": "address",
          "name": "owner",
          "type": "address"
        },
        {
          "internalType": "address",
          "name": "resolver",
          "type": "address"
        },
        {
          "internalType": "uint64",
          "name": "ttl",
          "type": "uint64"
        }
      ],
      "name": "setRecord",
      "outputs": [],
      "stateMutability": "nonpayable",
      "type": "function"
    },
    {
      "inputs": [
        {
          "internalType": "bytes32",
          "name": "node",
          "type": "bytes32"
        },
        {
          "internalType": "bytes32",
          "name": "label",
          "type": "bytes32"
        },
        {
          "internalType": "address",
          "name": "owner",
          "type": "address"
        },
        {
          "internalType": "address",
          "name": "resolver",
          "type": "address"
        },
        {
          "internalType": "uint64",
          "name": "ttl",
          "type": "uint64"
        }
      ],
      "name": "setSubnodeRecord",
      "outputs": [],
      "stateMutability": "nonpayable",
      "type": "function"
    },
    {
      "inputs": [
        {
          "internalType": "bytes32",
          "name": "node",
          "type": "bytes32"
        },
        {
          "internalType": "address",
          "name": "owner",
          "type": "address"
        }
      ],
      "name": "setOwner",
      "outputs": [],
      "stateMutability": "nonpayable",
      "type": "function"
    },
    {
      "inputs": [
        {
          "internalType": "bytes32",
          "name": "node",
          "type": "bytes32"
        },
        {
          "internalType": "bytes32",
          "name": "label",
          "type": "bytes32"
        },
        {
          "internalType": "address",
          "name": "owner",
          "type": "address"
        }
      ],
      "name": "setSubnodeOwner",
      "outputs": [
        {
          "internalType": "bytes32",
          "name": "",
          "type": "bytes32"
        }
      ],
      "stateMutability": "nonpayable",
      "type": "function"
    },
    {
      "inputs": [
        {
          "internalType": "bytes32",
          "name": "node",
          "type": "bytes32"
        },
        {
          "internalType": "string",
          "name": "name",
          "type": "string"
        },
        {
          "internalType": "address",
          "name": "owner",
          "type": "address"
        },
        {
          "internalType": "address",
          "name": "resolver",
          "type": "address"
        },
        {
          "internalType": "uint64",
          "name": "ttl",
          "type": "uint64"
        }
      ],
      "name": "setSubnameRecord",
      "outputs": [],
      "stateMutability": "nonpayable",
      "type": "function"
    },
    {
      "inputs": [
        {
          "internalType": "bytes32",
          "name": "node",
          "type": "bytes32"
        },
        {
          "internalType": "string",
          "name": "name",
          "type": "string"
        },
        {
          "internalType": "address",
          "name": "owner",
          "type": "address"
        }
      ],
      "name": "setSubnameOwner",
      "outputs": [
        {
          "internalType": "bytes32",
          "name": "",
          "type": "bytes32"
        }
      ],
      "stateMutability": "nonpayable",
      "type": "function"
    },
    {
      "inputs": [
        {
          "internalType": "bytes32",
          "name": "node",
          "type": "bytes32"
        },
        {
          "internalType": "address",
          "name": "resolver",
          "type": "address"
        }
      ],
      "name": "setResolver",
      "outputs": [],
      "stateMutability": "nonpayable",
      "type": "function"
    },
    {
      "inputs": [
        {
          "internalType": "bytes32",
          "name": "node",
          "type": "bytes32"
        },
        {
          "internalType": "uint64",
          "name": "ttl",
          "type": "uint64"
        }
      ],
      "name": "setTTL",
      "outputs": [],
      "stateMutability": "nonpayable",
      "type": "function"
    },
    {
      "inputs": [
        {
          "internalType": "bytes32",
          "name": "node",
          "type": "bytes32"
        }
      ],
      "name": "owner",
      "outputs": [
        {
          "internalType": "address",
          "name": "",
          "type": "address"
        }
      ],
      "stateMutability": "view",
      "type": "function"
    },
    {
      "inputs": [
        {
          "internalType": "bytes32",
          "name": "node",
          "type": "bytes32"
        }
      ],
      "name": "resolver",
      "outputs": [
        {
          "internalType": "address",
          "name": "",
          "type": "address"
        }
      ],
      "stateMutability": "view",
      "type": "function"
    },
    {
      "inputs": [
        {
          "internalType": "bytes32",
          "name": "node",
          "type": "bytes32"
        }
      ],
      "name": "ttl",
      "outputs": [
        {
          "internalType": "uint64",
          "name": "",
          "type": "uint64"
        }
      ],
      "stateMutability": "view",
      "type": "function"
    },
    {
      "inputs": [
        {
          "internalType": "bytes32",
          "name": "node",
          "type": "bytes32"
        }
      ],
      "name": "recordExists",
      "outputs": [
        {
          "internalType": "bool",
          "name": "",
          "type": "bool"
        }
      ],
      "stateMutability": "view",
      "type": "function"
    }
  ],
  "bytecode": "0x608060405234801561001057600080fd5b50336000808060001b815260200190815260200160002060000160006101000a81548173ffffffffffffffffffffffffffffffffffffffff021916908373ffffffffffffffffffffffffffffffffffffffff1602179055506111cb806100776000396000f3fe608060405234801561001057600080fd5b50600436106100b45760003560e01c80635b0fc9c3116100715780635b0fc9c3146101b15780635ef2c7f0146101cd578063a036c5fa146101e9578063cf40882314610219578063db30ea1a14610235578063f79fe53814610251576100b4565b80630178b8bf146100b957806302571be3146100e957806306ab59231461011957806314ab90381461014957806316a25cbd146101655780631896f70a14610195575b600080fd5b6100d360048036038101906100ce9190610bc8565b610281565b6040516100e09190610c36565b60405180910390f35b61010360048036038101906100fe9190610bc8565b6102c0565b6040516101109190610c36565b60405180910390f35b610133600480360381019061012e9190610c7d565b610343565b6040516101409190610cdf565b60405180910390f35b610163600480360381019061015e9190610d3a565b61047f565b005b61017f600480360381019061017a9190610bc8565b61056c565b60405161018c9190610d89565b60405180910390f35b6101af60048036038101906101aa9190610da4565b61059f565b005b6101cb60048036038101906101c69190610da4565b6106a4565b005b6101e760048036038101906101e29190610de4565b6107a9565b005b61020360048036038101906101fe9190610ec4565b6107cb565b6040516102109190610cdf565b60405180910390f35b610233600480360381019061022e9190610f38565b610928565b005b61024f600480360381019061024a9190610f9f565b610943565b005b61026b60048036038101906102669190610bc8565b610967565b6040516102789190611054565b60405180910390f35b600080600083815260200190815260200160002060010160009054906101000a900473ffffffffffffffffffffffffffffffffffffffff169050919050565b60008060008084815260200190815260200160002060000160009054906101000a900473ffffffffffffffffffffffffffffffffffffffff1690503073ffffffffffffffffffffffffffffffffffffffff168173ffffffffffffffffffffffffffffffffffffffff16141561033957600091505061033e565b809150505b919050565b600083600080600083815260200190815260200160002060000160009054906101000a900473ffffffffffffffffffffffffffffffffffffffff1690503373ffffffffffffffffffffffffffffffffffffffff168173ffffffffffffffffffffffffffffffffffffffff16146103b857600080fd5b600086866040516020016103cd929190611090565b6040516020818303038152906040528051906020012090508460008083815260200190815260200160002060000160006101000a81548173ffffffffffffffffffffffffffffffffffffffff021916908373ffffffffffffffffffffffffffffffffffffffff16021790555085877fce0457fe73731f824cc272376169235128c118b49d344817417c6d108d155e828760405161046a9190610c36565b60405180910390a38093505050509392505050565b81600080600083815260200190815260200160002060000160009054906101000a900473ffffffffffffffffffffffffffffffffffffffff1690503373ffffffffffffffffffffffffffffffffffffffff168173ffffffffffffffffffffffffffffffffffffffff16146104f257600080fd5b837f1d4f9bbfc9cab89d66e1a1562f2233ccbf1308cb4f63de2ead5787adddb8fa68846040516105229190610d89565b60405180910390a28260008086815260200190815260200160002060010160146101000a81548167ffffffffffffffff021916908367ffffffffffffffff16021790555050505050565b600080600083815260200190815260200160002060010160149054906101000a900467ffffffffffffffff169050919050565b81600080600083815260200190815260200160002060000160009054906101000a900473ffffffffffffffffffffffffffffffffffffffff1690503373ffffffffffffffffffffffffffffffffffffffff168173ffffffffffffffffffffffffffffffffffffffff161461061257600080fd5b837f335721b01866dc23fbee8b6b2c7b1e14d6f05c28cd35a2c934239f94095602a0846040516106429190610c36565b60405180910390a28260008086815260200190815260200160002060010160006101000a81548173ffffffffffffffffffffffffffffffffffffffff021916908373ffffffffffffffffffffffffffffffffffffffff16021790555050505050565b81600080600083815260200190815260200160002060000160009054906101000a900473ffffffffffffffffffffffffffffffffffffffff1690503373ffffffffffffffffffffffffffffffffffffffff168173ffffffffffffffffffffffffffffffffffffffff161461071757600080fd5b8260008086815260200190815260200160002060000160006101000a81548173ffffffffffffffffffffffffffffffffffffffff021916908373ffffffffffffffffffffffffffffffffffffffff160217905550837fd4735d920b0f87494915f556dd9b54c8f309026070caea5c737245152564d2668460405161079b9190610c36565b60405180910390a250505050565b60006107b6868686610343565b90506107c38684846109d5565b505050505050565b600084600080600083815260200190815260200160002060000160009054906101000a900473ffffffffffffffffffffffffffffffffffffffff1690503373ffffffffffffffffffffffffffffffffffffffff168173ffffffffffffffffffffffffffffffffffffffff161461084057600080fd5b600086866040516108529291906110fb565b6040518091039020905060008882604051602001610871929190611090565b6040516020818303038152906040528051906020012090508560008083815260200190815260200160002060000160006101000a81548173ffffffffffffffffffffffffffffffffffffffff021916908373ffffffffffffffffffffffffffffffffffffffff160217905550887f16b0a30253f6717dc845595ddbad586a7d36e08ca54143d2a249d7af3460b61889898960405161091193929190611163565b60405180910390a280945050505050949350505050565b61093284846106a4565b61093d8483836109d5565b50505050565b6000610951878787876107cb565b905061095e8784846109d5565b50505050505050565b60008073ffffffffffffffffffffffffffffffffffffffff1660008084815260200190815260200160002060000160009054906101000a900473ffffffffffffffffffffffffffffffffffffffff1673ffffffffffffffffffffffffffffffffffffffff1614159050919050565b60008084815260200190815260200160002060010160009054906101000a900473ffffffffffffffffffffffffffffffffffffffff1673ffffffffffffffffffffffffffffffffffffffff168273ffffffffffffffffffffffffffffffffffffffff1614610aca578160008085815260200190815260200160002060010160006101000a81548173ffffffffffffffffffffffffffffffffffffffff021916908373ffffffffffffffffffffffffffffffffffffffff160217905550827f335721b01866dc23fbee8b6b2c7b1e14d6f05c28cd35a2c934239f94095602a083604051610ac19190610c36565b60405180910390a25b60008084815260200190815260200160002060010160149054906101000a900467ffffffffffffffff1667ffffffffffffffff168167ffffffffffffffff1614610b83578060008085815260200190815260200160002060010160146101000a81548167ffffffffffffffff021916908367ffffffffffffffff160217905550827f1d4f9bbfc9cab89d66e1a1562f2233ccbf1308cb4f63de2ead5787adddb8fa6882604051610b7a9190610d89565b60405180910390a25b505050565b600080fd5b600080fd5b6000819050919050565b610ba581610b92565b8114610bb057600080fd5b50565b600081359050610bc281610b9c565b92915050565b600060208284031215610bde57610bdd610b88565b5b6000610bec84828501610bb3565b91505092915050565b600073ffffffffffffffffffffffffffffffffffffffff82169050919050565b6000610c2082610bf5565b9050919050565b610c3081610c15565b82525050565b6000602082019050610c4b6000830184610c27565b92915050565b610c5a81610c15565b8114610c6557600080fd5b50565b600081359050610c7781610c51565b92915050565b600080600060608486031215610c9657610c95610b88565b5b6000610ca486828701610bb3565b9350506020610cb586828701610bb3565b9250506040610cc686828701610c68565b9150509250925092565b610cd981610b92565b82525050565b6000602082019050610cf46000830184610cd0565b92915050565b600067ffffffffffffffff82169050919050565b610d1781610cfa565b8114610d2257600080fd5b50565b600081359050610d3481610d0e565b92915050565b60008060408385031215610d5157610d50610b88565b5b6000610d5f85828601610bb3565b9250506020610d7085828601610d25565b9150509250929050565b610d8381610cfa565b82525050565b6000602082019050610d9e6000830184610d7a565b92915050565b60008060408385031215610dbb57610dba610b88565b5b6000610dc985828601610bb3565b9250506020610dda85828601610c68565b9150509250929050565b600080600080600060a08688031215610e0057610dff610b88565b5b6000610e0e88828901610bb3565b9550506020610e1f88828901610bb3565b9450506040610e3088828901610c68565b9350506060610e4188828901610c68565b9250506080610e5288828901610d25565b9150509295509295909350565b600080fd5b600080fd5b600080fd5b60008083601f840112610e8457610e83610e5f565b5b8235905067ffffffffffffffff811115610ea157610ea0610e64565b5b602083019150836001820283011115610ebd57610ebc610e69565b5b9250929050565b60008060008060608587031215610ede57610edd610b88565b5b6000610eec87828801610bb3565b945050602085013567ffffffffffffffff811115610f0d57610f0c610b8d565b5b610f1987828801610e6e565b93509350506040610f2c87828801610c68565b91505092959194509250565b60008060008060808587031215610f5257610f51610b88565b5b6000610f6087828801610bb3565b9450506020610f7187828801610c68565b9350506040610f8287828801610c68565b9250506060610f9387828801610d25565b91505092959194509250565b60008060008060008060a08789031215610fbc57610fbb610b88565b5b6000610fca89828a01610bb3565b965050602087013567ffffffffffffffff811115610feb57610fea610b8d565b5b610ff789828a01610e6e565b9550955050604061100a89828a01610c68565b935050606061101b89828a01610c68565b925050608061102c89828a01610d25565b9150509295509295509295565b60008115159050919050565b61104e81611039565b82525050565b60006020820190506110696000830184611045565b92915050565b6000819050919050565b61108a61108582610b92565b61106f565b82525050565b600061109c8285611079565b6020820191506110ac8284611079565b6020820191508190509392505050565b600081905092915050565b82818337600083830152505050565b60006110e283856110bc565b93506110ef8385846110c7565b82840190509392505050565b60006111088284866110d6565b91508190509392505050565b600082825260208201905092915050565b6000601f19601f8301169050919050565b60006111428385611114565b935061114f8385846110c7565b61115883611125565b840190509392505050565b6000604082019050818103600083015261117e818587611136565b905061118d6020830184610c27565b94935050505056fea264697066735822122058da11e475dcb210a8b7fd6230333707e78bb025ce7b2912e648ec627d25779264736f6c63430008090033",
  "immutableReferences": {},
  "source": "pragma solidity >=0.8.4;\r\n\r\nimport \"./ENS.sol\";\r\n\r\ncontract ENSRegistry is ENS {\r\n\r\n    struct Record {\r\n        address owner;\r\n        address resolver;\r\n        uint64 ttl;\r\n    }\r\n\r\n    mapping (bytes32 => Record) records;\r\n\r\n    modifier authorised(bytes32 node) {\r\n        address owner = records[node].owner;\r\n        require(owner == msg.sender);\r\n        _;\r\n    }\r\n\r\n    constructor() public {\r\n        records[0x0].owner = msg.sender;\r\n    }\r\n\r\n    function setRecord(bytes32 node, address owner, address resolver, uint64 ttl) external virtual override {\r\n        setOwner(node, owner);\r\n\r\n        _setResolverAndTTL(node, resolver, ttl);\r\n    }\r\n\r\n    function setSubnodeRecord(bytes32 node, bytes32 label, address owner, address resolver, uint64 ttl) external virtual override {\r\n        bytes32 subnode = setSubnodeOwner(node, label, owner);\r\n\r\n        _setResolverAndTTL(node, resolver, ttl);\r\n    }\r\n\r\n    function setOwner(bytes32 node, address owner) public virtual override authorised(node) {\r\n        records[node].owner = owner;\r\n        emit Transfer(node, owner);\r\n    }\r\n\r\n    function setSubnodeOwner(bytes32 node, bytes32 label, address owner) public virtual override authorised(node) returns(bytes32) {\r\n        bytes32 subnode = keccak256(abi.encodePacked(node, label));\r\n        records[subnode].owner = owner;\r\n        emit NewOwner(node, label, owner);\r\n        return subnode;\r\n    }\r\n\r\n    function setSubnameRecord(bytes32 node, string calldata name, address owner, address resolver, uint64 ttl) external virtual override {\r\n        bytes32 subnode = setSubnameOwner(node, name, owner);\r\n\r\n        _setResolverAndTTL(node, resolver, ttl);\r\n    }\r\n\r\n    function setSubnameOwner(bytes32 node, string calldata name, address owner) public virtual override authorised(node) returns(bytes32) {\r\n        bytes32 label = keccak256(bytes(name));\r\n        bytes32 subnode = keccak256(abi.encodePacked(node, label));\r\n        records[subnode].owner = owner;\r\n        emit NewSubnameOwner(node, name, owner);\r\n        return subnode;\r\n    }\r\n\r\n    function setResolver(bytes32 node, address resolver) public virtual override authorised(node) {\r\n        emit NewResolver(node, resolver);\r\n        records[node].resolver = resolver;\r\n    }\r\n\r\n    function setTTL(bytes32 node, uint64 ttl) public virtual override authorised(node) {\r\n        emit NewTTL(node, ttl);\r\n        records[node].ttl = ttl;\r\n    }\r\n\r\n    function owner(bytes32 node) public virtual override view returns (address) {\r\n        address addr = records[node].owner;\r\n        if (addr == address(this)) {\r\n            return address(0x0);\r\n        }\r\n\r\n        return addr;\r\n    }\r\n\r\n    function resolver(bytes32 node) public virtual override view returns (address) {\r\n        return records[node].resolver;\r\n    }\r\n\r\n    function ttl(bytes32 node) public virtual override view returns (uint64) {\r\n        return records[node].ttl;\r\n    }\r\n\r\n    function recordExists(bytes32 node) public virtual override view returns (bool) {\r\n        return records[node].owner != address(0x0);\r\n    }\r\n\r\n    function _setResolverAndTTL(bytes32 node, address resolver, uint64 ttl) internal {\r\n        if(resolver != records[node].resolver) {\r\n            records[node].resolver = resolver;\r\n            emit NewResolver(node, resolver);\r\n        }\r\n\r\n        if(ttl != records[node].ttl) {\r\n            records[node].ttl = ttl;\r\n            emit NewTTL(node, ttl);\r\n        }\r\n    }\r\n}",
  "sourcePath": "/home/hzy/GitRepo/example-subgraph/contracts/registry/ENSRegistry.sol",
  "compiler": {
    "name": "solc",
    "version": "0.8.9+commit.e5eed63a.Emscripten.clang"
  },
  "schemaVersion": "3.3.3",
  "updatedAt": "2021-10-08T03:52:31.204Z",
  "devdoc": {
    "kind": "dev",
    "methods": {},
    "version": 1
  },
  "userdoc": {
    "kind": "user",
    "methods": {},
    "version": 1
  }
}