{
  "contractName": "PublicResolver",
  "abi": [
    {
      "inputs": [
        {
          "internalType": "contract ENS",
          "name": "_ens",
          "type": "address"
        }
      ],
      "stateMutability": "nonpayable",
      "type": "constructor"
    },
    {
      "anonymous": false,
      "inputs": [
        {
          "indexed": true,
          "internalType": "bytes32",
          "name": "node",
          "type": "bytes32"
        },
        {
          "indexed": false,
          "internalType": "uint256",
          "name": "coinType",
          "type": "uint256"
        },
        {
          "indexed": false,
          "internalType": "bytes",
          "name": "newAddress",
          "type": "bytes"
        }
      ],
      "name": "AddressChanged",
      "type": "event"
    },
    {
      "anonymous": false,
      "inputs": [
        {
          "indexed": true,
          "internalType": "address",
          "name": "owner",
          "type": "address"
        },
        {
          "indexed": true,
          "internalType": "address",
          "name": "operator",
          "type": "address"
        },
        {
          "indexed": false,
          "internalType": "bool",
          "name": "approved",
          "type": "bool"
        }
      ],
      "name": "ApprovalForAll",
      "type": "event"
    },
    {
      "anonymous": false,
      "inputs": [
        {
          "indexed": true,
          "internalType": "bytes32",
          "name": "node",
          "type": "bytes32"
        },
        {
          "indexed": false,
          "internalType": "bytes",
          "name": "hash",
          "type": "bytes"
        }
      ],
      "name": "ContenthashChanged",
      "type": "event"
    },
    {
      "anonymous": false,
      "inputs": [
        {
          "indexed": true,
          "internalType": "bytes32",
          "name": "node",
          "type": "bytes32"
        },
        {
          "indexed": true,
          "internalType": "string",
          "name": "indexedKey",
          "type": "string"
        },
        {
          "indexed": false,
          "internalType": "string",
          "name": "key",
          "type": "string"
        }
      ],
      "name": "TextChanged",
      "type": "event"
    },
    {
      "inputs": [
        {
          "internalType": "address",
          "name": "operator",
          "type": "address"
        },
        {
          "internalType": "bool",
          "name": "approved",
          "type": "bool"
        }
      ],
      "name": "setApprovalForAll",
      "outputs": [],
      "stateMutability": "nonpayable",
      "type": "function"
    },
    {
      "inputs": [
        {
          "internalType": "address",
          "name": "account",
          "type": "address"
        },
        {
          "internalType": "address",
          "name": "operator",
          "type": "address"
        }
      ],
      "name": "isApprovedForAll",
      "outputs": [
        {
          "internalType": "bool",
          "name": "",
          "type": "bool"
        }
      ],
      "stateMutability": "view",
      "type": "function"
    },
    {
      "inputs": [
        {
          "internalType": "bytes32",
          "name": "node",
          "type": "bytes32"
        },
        {
          "internalType": "uint256",
          "name": "coinType",
          "type": "uint256"
        },
        {
          "internalType": "bytes",
          "name": "a",
          "type": "bytes"
        }
      ],
      "name": "setAddr",
      "outputs": [],
      "stateMutability": "nonpayable",
      "type": "function"
    },
    {
      "inputs": [
        {
          "internalType": "bytes32",
          "name": "node",
          "type": "bytes32"
        },
        {
          "internalType": "uint256",
          "name": "coinType",
          "type": "uint256"
        }
      ],
      "name": "addr",
      "outputs": [
        {
          "internalType": "bytes",
          "name": "",
          "type": "bytes"
        }
      ],
      "stateMutability": "view",
      "type": "function"
    },
    {
      "inputs": [
        {
          "internalType": "bytes32",
          "name": "node",
          "type": "bytes32"
        },
        {
          "internalType": "bytes",
          "name": "hash",
          "type": "bytes"
        }
      ],
      "name": "setContenthash",
      "outputs": [],
      "stateMutability": "nonpayable",
      "type": "function"
    },
    {
      "inputs": [
        {
          "internalType": "bytes32",
          "name": "node",
          "type": "bytes32"
        }
      ],
      "name": "contenthash",
      "outputs": [
        {
          "internalType": "bytes",
          "name": "",
          "type": "bytes"
        }
      ],
      "stateMutability": "view",
      "type": "function"
    },
    {
      "inputs": [
        {
          "internalType": "bytes32",
          "name": "node",
          "type": "bytes32"
        },
        {
          "internalType": "string",
          "name": "key",
          "type": "string"
        },
        {
          "internalType": "string",
          "name": "value",
          "type": "string"
        }
      ],
      "name": "setText",
      "outputs": [],
      "stateMutability": "nonpayable",
      "type": "function"
    },
    {
      "inputs": [
        {
          "internalType": "bytes32",
          "name": "node",
          "type": "bytes32"
        },
        {
          "internalType": "string",
          "name": "key",
          "type": "string"
        }
      ],
      "name": "text",
      "outputs": [
        {
          "internalType": "string",
          "name": "",
          "type": "string"
        }
      ],
      "stateMutability": "view",
      "type": "function"
    }
  ],
  "bytecode": "0x60806040523480156200001157600080fd5b506040516200153e3803806200153e8339818101604052810190620000379190620000fc565b806000806101000a81548173ffffffffffffffffffffffffffffffffffffffff021916908373ffffffffffffffffffffffffffffffffffffffff160217905550506200012e565b600080fd5b600073ffffffffffffffffffffffffffffffffffffffff82169050919050565b6000620000b08262000083565b9050919050565b6000620000c482620000a3565b9050919050565b620000d681620000b7565b8114620000e257600080fd5b50565b600081519050620000f681620000cb565b92915050565b6000602082840312156200011557620001146200007e565b5b60006200012584828501620000e5565b91505092915050565b611400806200013e6000396000f3fe608060405234801561001057600080fd5b50600436106100885760003560e01c8063a22cb4651161005b578063a22cb46514610111578063bc1c58d11461012d578063e985e9c51461015d578063f1cb7e061461018d57610088565b806310f13a8c1461008d578063304e6ade146100a957806359d1d43c146100c55780638b95dd71146100f5575b600080fd5b6100a760048036038101906100a29190610ae2565b6101bd565b005b6100c360048036038101906100be9190610bcd565b61026b565b005b6100df60048036038101906100da9190610c2d565b6102e1565b6040516100ec9190610d26565b60405180910390f35b61010f600480360381019061010a9190610eae565b6103a6565b005b61012b60048036038101906101269190610fb3565b610432565b005b61014760048036038101906101429190610ff3565b61059e565b6040516101549190611075565b60405180910390f35b61017760048036038101906101729190611097565b610643565b60405161018491906110e6565b60405180910390f35b6101a760048036038101906101a29190611101565b6106d7565b6040516101b49190611075565b60405180910390f35b846101c78161078e565b6101d057600080fd5b82826004600089815260200190815260200160002087876040516101f5929190611171565b90815260200160405180910390209190610210929190610884565b508484604051610221929190611171565b6040518091039020867fd8c9334b1a9c2f9da342a0a2b32629c1a229b6445dad78947f674b44444a7550878760405161025b9291906111b7565b60405180910390a3505050505050565b826102758161078e565b61027e57600080fd5b82826003600087815260200190815260200160002091906102a092919061090a565b50837fe379c1624ed7e714cc0937528a32359d69d5281337765313dba4e081b72d757884846040516102d3929190611208565b60405180910390a250505050565b6060600460008581526020019081526020016000208383604051610306929190611171565b9081526020016040518091039020805461031f9061125b565b80601f016020809104026020016040519081016040528092919081815260200182805461034b9061125b565b80156103985780601f1061036d57610100808354040283529160200191610398565b820191906000526020600020905b81548152906001019060200180831161037b57829003601f168201915b505050505090509392505050565b826103b08161078e565b6103b957600080fd5b837f65412581168e88a1e60c6459d7f44ae83ad0832e670826c05a4e2476b57af75284846040516103eb92919061129c565b60405180910390a281600260008681526020019081526020016000206000858152602001908152602001600020908051906020019061042b929190610990565b5050505050565b8173ffffffffffffffffffffffffffffffffffffffff163373ffffffffffffffffffffffffffffffffffffffff1614156104a1576040517f08c379a00000000000000000000000000000000000000000000000000000000081526004016104989061133e565b60405180910390fd5b80600160003373ffffffffffffffffffffffffffffffffffffffff1673ffffffffffffffffffffffffffffffffffffffff16815260200190815260200160002060008473ffffffffffffffffffffffffffffffffffffffff1673ffffffffffffffffffffffffffffffffffffffff16815260200190815260200160002060006101000a81548160ff0219169083151502179055508173ffffffffffffffffffffffffffffffffffffffff163373ffffffffffffffffffffffffffffffffffffffff167f17307eab39ab6107e8899845ad3d59bd9653f200f220920489ca2b5937696c318360405161059291906110e6565b60405180910390a35050565b60606003600083815260200190815260200160002080546105be9061125b565b80601f01602080910402602001604051908101604052809291908181526020018280546105ea9061125b565b80156106375780601f1061060c57610100808354040283529160200191610637565b820191906000526020600020905b81548152906001019060200180831161061a57829003601f168201915b50505050509050919050565b6000600160008473ffffffffffffffffffffffffffffffffffffffff1673ffffffffffffffffffffffffffffffffffffffff16815260200190815260200160002060008373ffffffffffffffffffffffffffffffffffffffff1673ffffffffffffffffffffffffffffffffffffffff16815260200190815260200160002060009054906101000a900460ff16905092915050565b606060026000848152602001908152602001600020600083815260200190815260200160002080546107089061125b565b80601f01602080910402602001604051908101604052809291908181526020018280546107349061125b565b80156107815780601f1061075657610100808354040283529160200191610781565b820191906000526020600020905b81548152906001019060200180831161076457829003601f168201915b5050505050905092915050565b60008060008054906101000a900473ffffffffffffffffffffffffffffffffffffffff1673ffffffffffffffffffffffffffffffffffffffff166302571be3846040518263ffffffff1660e01b81526004016107ea919061136d565b60206040518083038186803b15801561080257600080fd5b505afa158015610816573d6000803e3d6000fd5b505050506040513d601f19601f8201168201806040525081019061083a919061139d565b90503373ffffffffffffffffffffffffffffffffffffffff168173ffffffffffffffffffffffffffffffffffffffff16148061087c575061087b8133610643565b5b915050919050565b8280546108909061125b565b90600052602060002090601f0160209004810192826108b257600085556108f9565b82601f106108cb57803560ff19168380011785556108f9565b828001600101855582156108f9579182015b828111156108f85782358255916020019190600101906108dd565b5b5090506109069190610a16565b5090565b8280546109169061125b565b90600052602060002090601f016020900481019282610938576000855561097f565b82601f1061095157803560ff191683800117855561097f565b8280016001018555821561097f579182015b8281111561097e578235825591602001919060010190610963565b5b50905061098c9190610a16565b5090565b82805461099c9061125b565b90600052602060002090601f0160209004810192826109be5760008555610a05565b82601f106109d757805160ff1916838001178555610a05565b82800160010185558215610a05579182015b82811115610a045782518255916020019190600101906109e9565b5b509050610a129190610a16565b5090565b5b80821115610a2f576000816000905550600101610a17565b5090565b6000604051905090565b600080fd5b600080fd5b6000819050919050565b610a5a81610a47565b8114610a6557600080fd5b50565b600081359050610a7781610a51565b92915050565b600080fd5b600080fd5b600080fd5b60008083601f840112610aa257610aa1610a7d565b5b8235905067ffffffffffffffff811115610abf57610abe610a82565b5b602083019150836001820283011115610adb57610ada610a87565b5b9250929050565b600080600080600060608688031215610afe57610afd610a3d565b5b6000610b0c88828901610a68565b955050602086013567ffffffffffffffff811115610b2d57610b2c610a42565b5b610b3988828901610a8c565b9450945050604086013567ffffffffffffffff811115610b5c57610b5b610a42565b5b610b6888828901610a8c565b92509250509295509295909350565b60008083601f840112610b8d57610b8c610a7d565b5b8235905067ffffffffffffffff811115610baa57610ba9610a82565b5b602083019150836001820283011115610bc657610bc5610a87565b5b9250929050565b600080600060408486031215610be657610be5610a3d565b5b6000610bf486828701610a68565b935050602084013567ffffffffffffffff811115610c1557610c14610a42565b5b610c2186828701610b77565b92509250509250925092565b600080600060408486031215610c4657610c45610a3d565b5b6000610c5486828701610a68565b935050602084013567ffffffffffffffff811115610c7557610c74610a42565b5b610c8186828701610a8c565b92509250509250925092565b600081519050919050565b600082825260208201905092915050565b60005b83811015610cc7578082015181840152602081019050610cac565b83811115610cd6576000848401525b50505050565b6000601f19601f8301169050919050565b6000610cf882610c8d565b610d028185610c98565b9350610d12818560208601610ca9565b610d1b81610cdc565b840191505092915050565b60006020820190508181036000830152610d408184610ced565b905092915050565b6000819050919050565b610d5b81610d48565b8114610d6657600080fd5b50565b600081359050610d7881610d52565b92915050565b600080fd5b7f4e487b7100000000000000000000000000000000000000000000000000000000600052604160045260246000fd5b610dbb82610cdc565b810181811067ffffffffffffffff82111715610dda57610dd9610d83565b5b80604052505050565b6000610ded610a33565b9050610df98282610db2565b919050565b600067ffffffffffffffff821115610e1957610e18610d83565b5b610e2282610cdc565b9050602081019050919050565b82818337600083830152505050565b6000610e51610e4c84610dfe565b610de3565b905082815260208101848484011115610e6d57610e6c610d7e565b5b610e78848285610e2f565b509392505050565b600082601f830112610e9557610e94610a7d565b5b8135610ea5848260208601610e3e565b91505092915050565b600080600060608486031215610ec757610ec6610a3d565b5b6000610ed586828701610a68565b9350506020610ee686828701610d69565b925050604084013567ffffffffffffffff811115610f0757610f06610a42565b5b610f1386828701610e80565b9150509250925092565b600073ffffffffffffffffffffffffffffffffffffffff82169050919050565b6000610f4882610f1d565b9050919050565b610f5881610f3d565b8114610f6357600080fd5b50565b600081359050610f7581610f4f565b92915050565b60008115159050919050565b610f9081610f7b565b8114610f9b57600080fd5b50565b600081359050610fad81610f87565b92915050565b60008060408385031215610fca57610fc9610a3d565b5b6000610fd885828601610f66565b9250506020610fe985828601610f9e565b9150509250929050565b60006020828403121561100957611008610a3d565b5b600061101784828501610a68565b91505092915050565b600081519050919050565b600082825260208201905092915050565b600061104782611020565b611051818561102b565b9350611061818560208601610ca9565b61106a81610cdc565b840191505092915050565b6000602082019050818103600083015261108f818461103c565b905092915050565b600080604083850312156110ae576110ad610a3d565b5b60006110bc85828601610f66565b92505060206110cd85828601610f66565b9150509250929050565b6110e081610f7b565b82525050565b60006020820190506110fb60008301846110d7565b92915050565b6000806040838503121561111857611117610a3d565b5b600061112685828601610a68565b925050602061113785828601610d69565b9150509250929050565b600081905092915050565b60006111588385611141565b9350611165838584610e2f565b82840190509392505050565b600061117e82848661114c565b91508190509392505050565b60006111968385610c98565b93506111a3838584610e2f565b6111ac83610cdc565b840190509392505050565b600060208201905081810360008301526111d281848661118a565b90509392505050565b60006111e7838561102b565b93506111f4838584610e2f565b6111fd83610cdc565b840190509392505050565b600060208201905081810360008301526112238184866111db565b90509392505050565b7f4e487b7100000000000000000000000000000000000000000000000000000000600052602260045260246000fd5b6000600282049050600182168061127357607f821691505b602082108114156112875761128661122c565b5b50919050565b61129681610d48565b82525050565b60006040820190506112b1600083018561128d565b81810360208301526112c3818461103c565b90509392505050565b7f455243313135353a2073657474696e6720617070726f76616c2073746174757360008201527f20666f722073656c660000000000000000000000000000000000000000000000602082015250565b6000611328602983610c98565b9150611333826112cc565b604082019050919050565b600060208201905081810360008301526113578161131b565b9050919050565b61136781610a47565b82525050565b6000602082019050611382600083018461135e565b92915050565b60008151905061139781610f4f565b92915050565b6000602082840312156113b3576113b2610a3d565b5b60006113c184828501611388565b9150509291505056fea2646970667358221220a23388649c286ac8b4e9a2484e18fcf71a27b9f5bd2416662f266b28cc34cda664736f6c63430008090033",
  "immutableReferences": {},
  "source": "pragma solidity >=0.8.4;\r\n\r\nimport \"../registry/ENS.sol\";\r\n\r\ncontract PublicResolver {\r\n    ENS ens;\r\n\r\n    mapping(address => mapping(address => bool)) private _operatorApprovals;\r\n\r\n    event ApprovalForAll(address indexed owner, address indexed operator, bool approved);\r\n\r\n    constructor(ENS _ens){\r\n        ens = _ens;\r\n    }\r\n\r\n    function setApprovalForAll(address operator, bool approved) external{\r\n        require(\r\n            msg.sender != operator,\r\n            \"ERC1155: setting approval status for self\"\r\n        );\r\n\r\n        _operatorApprovals[msg.sender][operator] = approved;\r\n        emit ApprovalForAll(msg.sender, operator, approved);\r\n    }\r\n\r\n    function isApprovedForAll(address account, address operator) public view returns (bool){\r\n        return _operatorApprovals[account][operator];\r\n    }\r\n\r\n    function isAuthorised(bytes32 node) internal view returns(bool) {\r\n        address owner = ens.owner(node);\r\n        return owner == msg.sender || isApprovedForAll(owner, msg.sender);\r\n    }\r\n\r\n    modifier authorised(bytes32 node) {\r\n        require(isAuthorised(node));\r\n        _;\r\n    }\r\n\r\n    // Addr Resolver\r\n\r\n    event AddressChanged(bytes32 indexed node, uint coinType, bytes newAddress);\r\n\r\n    mapping(bytes32=>mapping(uint=>bytes)) _addresses;\r\n\r\n\r\n    function setAddr(bytes32 node, uint coinType, bytes memory a) public authorised(node) {\r\n        emit AddressChanged(node, coinType, a);\r\n        _addresses[node][coinType] = a;\r\n    }\r\n\r\n    function addr(bytes32 node, uint coinType) public view returns(bytes memory) {\r\n        return _addresses[node][coinType];\r\n    }\r\n\r\n    // ContentHash Resolver\r\n\r\n    event ContenthashChanged(bytes32 indexed node, bytes hash);\r\n\r\n    mapping(bytes32=>bytes) hashes;\r\n\r\n    function setContenthash(bytes32 node, bytes calldata hash) external authorised(node) {\r\n        hashes[node] = hash;\r\n        emit ContenthashChanged(node, hash);\r\n    }\r\n\r\n    function contenthash(bytes32 node) external view returns (bytes memory) {\r\n        return hashes[node];\r\n    }\r\n\r\n    // Text Resolver\r\n\r\n    event TextChanged(bytes32 indexed node, string indexed indexedKey, string key);\r\n\r\n    mapping(bytes32=>mapping(string=>string)) texts;\r\n\r\n    function setText(bytes32 node, string calldata key, string calldata value) external authorised(node) {\r\n        texts[node][key] = value;\r\n        emit TextChanged(node, key, key);\r\n    }\r\n\r\n    function text(bytes32 node, string calldata key) external view returns (string memory) {\r\n        return texts[node][key];\r\n    }\r\n\r\n}",
  "sourcePath": "/home/hzy/GitRepo/example-subgraph/contracts/resolvers/PublicResolver.sol",
  "compiler": {
    "name": "solc",
    "version": "0.8.9+commit.e5eed63a.Emscripten.clang"
  },
  "schemaVersion": "3.3.3",
  "updatedAt": "2021-10-08T03:52:31.210Z",
  "devdoc": {
    "kind": "dev",
    "methods": {},
    "version": 1
  },
  "userdoc": {
    "kind": "user",
    "methods": {},
    "version": 1
  }
}